{
  "contractName": "Dex",
  "abi": [
    {
      "inputs": [],
      "stateMutability": "nonpayable",
      "type": "constructor"
    },
    {
      "anonymous": false,
      "inputs": [
        {
          "indexed": false,
          "internalType": "uint256",
          "name": "tradeId",
          "type": "uint256"
        },
        {
          "indexed": true,
          "internalType": "bytes32",
          "name": "ticker",
          "type": "bytes32"
        },
        {
          "indexed": true,
          "internalType": "address",
          "name": "trader1",
          "type": "address"
        },
        {
          "indexed": true,
          "internalType": "address",
          "name": "trader2",
          "type": "address"
        },
        {
          "indexed": false,
          "internalType": "uint256",
          "name": "side",
          "type": "uint256"
        },
        {
          "indexed": false,
          "internalType": "uint256",
          "name": "amount",
          "type": "uint256"
        },
        {
          "indexed": false,
          "internalType": "uint256",
          "name": "price",
          "type": "uint256"
        },
        {
          "indexed": false,
          "internalType": "uint256",
          "name": "date",
          "type": "uint256"
        }
      ],
      "name": "NewTrade",
      "type": "event"
    },
    {
      "inputs": [
        {
          "internalType": "uint256",
          "name": "",
          "type": "uint256"
        }
      ],
      "name": "tokenList",
      "outputs": [
        {
          "internalType": "bytes32",
          "name": "",
          "type": "bytes32"
        }
      ],
      "stateMutability": "view",
      "type": "function",
      "constant": true
    },
    {
      "inputs": [
        {
          "internalType": "address",
          "name": "",
          "type": "address"
        },
        {
          "internalType": "bytes32",
          "name": "",
          "type": "bytes32"
        }
      ],
      "name": "traderBalances",
      "outputs": [
        {
          "internalType": "uint256",
          "name": "",
          "type": "uint256"
        }
      ],
      "stateMutability": "view",
      "type": "function",
      "constant": true
    },
    {
      "inputs": [
        {
          "internalType": "uint256",
          "name": "",
          "type": "uint256"
        }
      ],
      "name": "traderList",
      "outputs": [
        {
          "internalType": "uint256",
          "name": "",
          "type": "uint256"
        }
      ],
      "stateMutability": "view",
      "type": "function",
      "constant": true
    },
    {
      "inputs": [],
      "name": "tickers",
      "outputs": [
        {
          "internalType": "bytes32[]",
          "name": "",
          "type": "bytes32[]"
        }
      ],
      "stateMutability": "view",
      "type": "function",
      "constant": true
    },
    {
      "inputs": [],
      "name": "getTokenList",
      "outputs": [
        {
          "internalType": "bytes32[]",
          "name": "",
          "type": "bytes32[]"
        }
      ],
      "stateMutability": "view",
      "type": "function",
      "constant": true
    },
    {
      "inputs": [
        {
          "internalType": "bytes32",
          "name": "_ticker",
          "type": "bytes32"
        }
      ],
      "name": "extractTokens",
      "outputs": [
        {
          "internalType": "bytes32",
          "name": "",
          "type": "bytes32"
        },
        {
          "internalType": "address",
          "name": "",
          "type": "address"
        }
      ],
      "stateMutability": "view",
      "type": "function",
      "constant": true
    },
    {
      "inputs": [],
      "name": "getTokens",
      "outputs": [
        {
          "components": [
            {
              "internalType": "bytes32",
              "name": "ticker",
              "type": "bytes32"
            },
            {
              "internalType": "address",
              "name": "tokenAddress",
              "type": "address"
            }
          ],
          "internalType": "struct Dex.Token[]",
          "name": "",
          "type": "tuple[]"
        }
      ],
      "stateMutability": "view",
      "type": "function",
      "constant": true
    },
    {
      "inputs": [
        {
          "internalType": "bytes32",
          "name": "_ticker",
          "type": "bytes32"
        },
        {
          "internalType": "address",
          "name": "_tokenAddress",
          "type": "address"
        }
      ],
      "name": "addToken",
      "outputs": [],
      "stateMutability": "nonpayable",
      "type": "function"
    },
    {
      "inputs": [
        {
          "internalType": "uint256",
          "name": "_amount",
          "type": "uint256"
        },
        {
          "internalType": "bytes32",
          "name": "_ticker",
          "type": "bytes32"
        }
      ],
      "name": "deposit",
      "outputs": [],
      "stateMutability": "nonpayable",
      "type": "function"
    },
    {
      "inputs": [
        {
          "internalType": "uint256",
          "name": "_amount",
          "type": "uint256"
        },
        {
          "internalType": "bytes32",
          "name": "_ticker",
          "type": "bytes32"
        }
      ],
      "name": "withdrawal",
      "outputs": [],
      "stateMutability": "nonpayable",
      "type": "function"
    },
    {
      "inputs": [
        {
          "internalType": "address",
          "name": "_trader",
          "type": "address"
        },
        {
          "internalType": "uint256",
          "name": "_amount",
          "type": "uint256"
        },
        {
          "internalType": "bytes32",
          "name": "_ticker",
          "type": "bytes32"
        },
        {
          "internalType": "uint256",
          "name": "_side",
          "type": "uint256"
        },
        {
          "internalType": "uint256",
          "name": "_filled",
          "type": "uint256"
        },
        {
          "internalType": "uint256",
          "name": "_price",
          "type": "uint256"
        }
      ],
      "name": "createMarketOrder",
      "outputs": [],
      "stateMutability": "nonpayable",
      "type": "function"
    }
  ],
  "bytecode": "0x608060405234801561001057600080fd5b50600580546001600160a01b03191633179055611012806100326000396000f3fe608060405234801561001057600080fd5b50600436106100a95760003560e01c80638e6b72ab116100715780638e6b72ab146101145780639776aacf146101355780639ead722214610148578063aa6ca8081461015b578063c9630cb014610170578063c9d2511114610183576100a9565b806306c98137146100ae578063273cbaa0146100c357806341fe8d10146100e157806342bfdc9c146100c357806372ce957e146100f4575b600080fd5b6100c16100bc366004610bbf565b610196565b005b6100cb6105dd565b6040516100d89190610cfd565b60405180910390f35b6100c16100ef366004610c71565b610635565b610107610102366004610b89565b61077e565b6040516100d89190610d99565b610127610122366004610c2a565b61079b565b6040516100d8929190610da2565b6100c1610143366004610c42565b6107bf565b610107610156366004610c2a565b610862565b610163610880565b6040516100d89190610d41565b6100c161017e366004610c71565b610970565b610107610191366004610c2a565b610a8f565b60008481526020819052604090206001015484906001600160a01b03166101d85760405162461bcd60e51b81526004016101cf90610e0c565b60405180910390fd5b846244414960e81b8114156101ff5760405162461bcd60e51b81526004016101cf90610eb9565b6000888888888760405160200161021a959493929190610ccf565b604051602081830303815290604052805190602001209050336001600160a01b0316896001600160a01b0316887f070561fe6a90cb30b7a10427a86969063899e934dff7d70181cb126b7d6f91a86004548a8a8a42604051610280959493929190610fa1565b60405180910390a4856103f8573360009081526001602090815260408083208a84529091529020546102b8908663ffffffff610a9c16565b3360009081526001602090815260408083208b84529091529020556103136102e6868663ffffffff610ae716565b3360009081526001602090815260408083206244414960e81b84529091529020549063ffffffff610b2116565b3360009081526001602081815260408084206244414960e81b85528252808420949094556001600160a01b038d1683529081528282208a835290522054610360908663ffffffff610b2116565b6001600160a01b038a1660009081526001602090815260408083208b84529091529020556103cd610397868663ffffffff610ae716565b6001600160a01b038b1660009081526001602090815260408083206244414960e81b84529091529020549063ffffffff610a9c16565b6001600160a01b038a1660009081526001602090815260408083206244414960e81b84529091529020555b85600114156105bb57610411858563ffffffff610ae716565b3360009081526001602090815260408083206244414960e81b845290915290205410156104505760405162461bcd60e51b81526004016101cf90610f6a565b3360009081526001602090815260408083208a845290915290205461047b908663ffffffff610b2116565b3360009081526001602090815260408083208b84529091529020556104d66104a9868663ffffffff610ae716565b3360009081526001602090815260408083206244414960e81b84529091529020549063ffffffff610a9c16565b3360009081526001602081815260408084206244414960e81b85528252808420949094556001600160a01b038d1683529081528282208a835290522054610523908663ffffffff610a9c16565b6001600160a01b038a1660009081526001602090815260408083208b845290915290205561059061055a868663ffffffff610ae716565b6001600160a01b038b1660009081526001602090815260408083206244414960e81b84529091529020549063ffffffff610b2116565b6001600160a01b038a1660009081526001602090815260408083206244414960e81b84529091529020555b6004546105cf90600163ffffffff610b2116565b600455505050505050505050565b6060600280548060200260200160405190810160405280929190818152602001828054801561062b57602002820191906000526020600020905b815481526020019060010190808311610617575b5050505050905090565b60008181526020819052604090206001015481906001600160a01b031661066e5760405162461bcd60e51b81526004016101cf90610e0c565b3360009081526001602090815260408083208584529091529020548311156106a85760405162461bcd60e51b81526004016101cf90610f33565b3360009081526001602090815260408083208584529091529020546106d3908463ffffffff610a9c16565b336000818152600160208181526040808420888552825280842095909555829052908390200154915163a9059cbb60e01b81526001600160a01b039092169163a9059cbb91610726918790600401610cb6565b602060405180830381600087803b15801561074057600080fd5b505af1158015610754573d6000803e3d6000fd5b505050506040513d601f19601f820116820180604052506107789190810190610c0a565b50505050565b600160209081526000928352604080842090915290825290205481565b600081815260208190526040902080546001909101546001600160a01b0316915091565b6005546001600160a01b031633146107e95760405162461bcd60e51b81526004016101cf90610ef0565b6040805180820182528381526001600160a01b0392831660208083019182526000868152908190529283209151825551600191820180546001600160a01b031916919094161790925560028054928301815590527f405787fa12a823e0f2b7631cc41b3ba8828b3321ca811111fa75cd3aa3bb5ace0155565b6002818154811061086f57fe5b600091825260209091200154905081565b6060806002805490506040519080825280602002602001820160405280156108c257816020015b6108af610b72565b8152602001906001900390816108a75790505b50905060005b60025481101561096a576040518060400160405280600080600285815481106108ed57fe5b906000526020600020015481526020019081526020016000206000015481526020016000806002858154811061091f57fe5b600091825260208083209091015483528201929092526040019020600101546001600160a01b03169052825183908390811061095757fe5b60209081029190910101526001016108c8565b50905090565b60008181526020819052604090206001015481906001600160a01b03166109a95760405162461bcd60e51b81526004016101cf90610e0c565b600082815260208190526040908190206001015490516323b872dd60e01b81526001600160a01b03909116906323b872dd906109ed90339030908890600401610c92565b602060405180830381600087803b158015610a0757600080fd5b505af1158015610a1b573d6000803e3d6000fd5b505050506040513d601f19601f82011682018060405250610a3f9190810190610c0a565b50336000908152600160209081526040808320858452909152902054610a6b908463ffffffff610b2116565b33600090815260016020908152604080832095835294905292909220919091555050565b6003818154811061086f57fe5b6000610ade83836040518060400160405280601e81526020017f536166654d6174683a207375627472616374696f6e206f766572666c6f770000815250610b46565b90505b92915050565b600082610af657506000610ae1565b82820282848281610b0357fe5b0414610ade5760405162461bcd60e51b81526004016101cf90610e78565b600082820183811015610ade5760405162461bcd60e51b81526004016101cf90610e41565b60008184841115610b6a5760405162461bcd60e51b81526004016101cf9190610db9565b505050900390565b604080518082019091526000808252602082015290565b60008060408385031215610b9b578182fd5b82356001600160a01b0381168114610bb1578283fd5b946020939093013593505050565b60008060008060008060c08789031215610bd7578182fd5b8635610be281610fc4565b9860208801359850604088013597606081013597506080810135965060a00135945092505050565b600060208284031215610c1b578081fd5b81518015158114610ade578182fd5b600060208284031215610c3b578081fd5b5035919050565b60008060408385031215610c54578182fd5b823591506020830135610c6681610fc4565b809150509250929050565b60008060408385031215610c83578182fd5b50508035926020909101359150565b6001600160a01b039384168152919092166020820152604081019190915260600190565b6001600160a01b03929092168252602082015260400190565b6001600160a01b03959095168552602085019390935260408401919091526060830152608082015260a00190565b6020808252825182820181905260009190848201906040850190845b81811015610d3557835183529284019291840191600101610d19565b50909695505050505050565b602080825282518282018190526000919060409081850190868401855b82811015610d8c578151805185528601516001600160a01b0316868501529284019290850190600101610d5e565b5091979650505050505050565b90815260200190565b9182526001600160a01b0316602082015260400190565b6000602080835283518082850152825b81811015610de557858101830151858201604001528201610dc9565b81811115610df65783604083870101525b50601f01601f1916929092016040019392505050565b6020808252818101527f4465783a20546f6b656e204164647265737320646f65736e2774206578697374604082015260600190565b6020808252601b908201527f536166654d6174683a206164646974696f6e206f766572666c6f770000000000604082015260600190565b60208082526021908201527f536166654d6174683a206d756c7469706c69636174696f6e206f766572666c6f6040820152607760f81b606082015260800190565b6020808252601b908201527f4465783a2043616e6e6f742074726164652044414920746f6b656e0000000000604082015260600190565b60208082526023908201527f4465783a2054686973206973206e6f7420617574686f7269736564206164647260408201526265737360e81b606082015260800190565b6020808252601a908201527f4465783a20496e73756666696369656e742042616c616e636573000000000000604082015260600190565b6020808252601d908201527f4465783a20496e73756666696369656e74204441492042616c616e6365000000604082015260600190565b948552602085019390935260408401919091526060830152608082015260a00190565b6001600160a01b0381168114610fd957600080fd5b5056fea264697066735822122068930b76a02e178be62655e0b7e21d3b09c9961726bfaffc04e2a5d3c73f2ed964736f6c63430006030033",
  "source": "//SPDX-License-Identifier:unlicensed\npragma solidity >=0.5.0 <0.7.0;\npragma experimental ABIEncoderV2;\n\nimport \"@openzeppelin/contracts/token/ERC20/IERC20.sol\";\nimport \"@openzeppelin/contracts/math/SafeMath.sol\";\n\n///@author Bhasin Neeraj\n///@title Dex for ERC20 tokens\ncontract Dex {\n    using SafeMath for uint256;\n    //creating state of buy and sell for order\n    enum Side {BUY, SELL}\n    //event for NewTrade\n    event NewTrade(\n        uint256 tradeId,\n        bytes32 indexed ticker,\n        address indexed trader1,\n        address indexed trader2,\n        uint256 side,\n        uint256 amount,\n        uint256 price,\n        uint256 date\n    );\n\n    /**\n     * struct for registering Token\n     * struct for collection orders\n     */\n    struct Token {\n        bytes32 ticker;\n        address tokenAddress;\n    }\n\n    // struct Order {\n    //     uint256 id;\n    //     Side side;\n    //     uint256 amount;\n    //     uint256 filled;\n    //     uint256 price;\n    //     uint256 date;\n    //     address trader;\n    //     bytes32 ticker;\n    // }\n\n    /**@dev\n     * mapping ticker => Token struct\n     *tracking the amount/owners of tokens\n     * ticker=> buy/sell => Order-all order values\n     * storing all tickers in tokenList\n     * storing all order ids in orderList\n     * storing all trader ids in traderList\n     * admin address\n     * declaring cosntant variable for DAI ticker\n     */\n    mapping(bytes32 => Token) tokens;\n    mapping(address => mapping(bytes32 => uint256)) public traderBalances;\n    // mapping(bytes32 => mapping(uint256 => Order[])) public orderBook;\n    bytes32[] public tokenList;\n    //uint256[] public orderList;\n    uint256[] public traderList;\n    //uint256 nextOrderId;\n    uint256 nextTradeId;\n    address admin;\n    bytes32 constant DAI = bytes32(\"DAI\");\n\n    constructor() public {\n        admin = msg.sender;\n    }\n\n    function tickers() public view returns (bytes32[] memory) {\n        return tokenList;\n    }\n\n    function getTokenList() public view returns (bytes32[] memory) {\n        return tokenList;\n    }\n\n    function extractTokens(bytes32 _ticker)\n        public\n        view\n        returns (bytes32, address)\n    {\n        return (tokens[_ticker].ticker, tokens[_ticker].tokenAddress);\n    }\n\n    function getTokens() external view returns (Token[] memory) {\n        Token[] memory _tokens = new Token[](tokenList.length);\n        for (uint256 i = 0; i < tokenList.length; i++) {\n            _tokens[i] = Token(\n                tokens[tokenList[i]].ticker,\n                tokens[tokenList[i]].tokenAddress\n            );\n        }\n        return _tokens;\n        //return (tokens[_ticker].ticker, tokens[_ticker].tokenAddress);\n    }\n\n    //adding tokens to mappings- registering the tokens\n    function addToken(bytes32 _ticker, address _tokenAddress)\n        external\n        onlyAdmin()\n    {\n        tokens[_ticker] = Token(_ticker, _tokenAddress);\n        tokenList.push(_ticker);\n    }\n\n    // function getOrders(bytes32 _ticker, Side _side)\n    //     public\n    //     view\n    //     returns (Order[] memory)\n    // {\n    //     return orderBook[_ticker][uint256(_side)];\n    // }\n\n    /**-----START: Wallet------**/\n    //defining a wallet for deposit and withdraw of tokens from smart contract\n    function deposit(uint256 _amount, bytes32 _ticker)\n        external\n        tokenExist(_ticker)\n    {\n        //casting token addr inot IERC20 to call the transferFrom function\n        IERC20(tokens[_ticker].tokenAddress).transferFrom(\n            msg.sender,\n            address(this),\n            _amount\n        );\n        traderBalances[msg.sender][_ticker] = traderBalances[msg\n            .sender][_ticker]\n            .add(_amount);\n    }\n\n    function withdrawal(uint256 _amount, bytes32 _ticker)\n        external\n        tokenExist(_ticker)\n    {\n        require(\n            traderBalances[msg.sender][_ticker] >= _amount,\n            \"Dex: Insufficient Balances\"\n        );\n        traderBalances[msg.sender][_ticker] = traderBalances[msg\n            .sender][_ticker]\n            .sub(_amount);\n        IERC20(tokens[_ticker].tokenAddress).transfer(msg.sender, _amount);\n    }\n\n    /**-----END: Wallet------**/\n\n    /**-----START: Market orders settlement------**/\n    function createMarketOrder(\n        address _trader,\n        uint256 _amount,\n        bytes32 _ticker,\n        uint256 _side,\n        uint256 _filled,\n        uint256 _price\n    ) public tokenExist(_ticker) tokenIsNotDai(_ticker) {\n        bytes32 hash = keccak256(\n            abi.encode(_trader, _amount, _ticker, _side, _price)\n        );\n        emit NewTrade(\n            nextTradeId,\n            _ticker,\n            _trader,\n            msg.sender,\n            _side,\n            _filled,\n            _price,\n            block.timestamp\n        );\n        if (_side == 0) {\n            traderBalances[msg.sender][_ticker] = traderBalances[msg\n                .sender][_ticker]\n                .sub(_filled);\n            traderBalances[msg.sender][DAI] = traderBalances[msg.sender][DAI]\n                .add(_filled.mul(_price));\n            traderBalances[_trader][_ticker] = traderBalances[_trader][_ticker]\n                .add(_filled);\n            traderBalances[_trader][DAI] = traderBalances[_trader][DAI].sub(\n                _filled.mul(_price)\n            );\n        }\n        if (_side == 1) {\n            require(\n                traderBalances[msg.sender][DAI] >= _filled.mul(_price),\n                \"Dex: Insufficient DAI Balance\"\n            );\n\n            traderBalances[msg.sender][_ticker] = traderBalances[msg\n                .sender][_ticker]\n                .add(_filled);\n            traderBalances[msg.sender][DAI] = traderBalances[msg.sender][DAI]\n                .sub(_filled.mul(_price));\n            traderBalances[_trader][_ticker] = traderBalances[_trader][_ticker]\n                .sub(_filled);\n            traderBalances[_trader][DAI] = traderBalances[_trader][DAI].add(\n                _filled.mul(_price)\n            );\n        }\n        nextTradeId = nextTradeId.add(1);\n    }\n\n    /**-----END: MARKET orders------**/\n    /**-----START: MARKET orders------**/\n    // function createMarketOrder(\n    //     bytes32 _ticker,\n    //     uint256 _amount,\n    //     Side _side\n    // ) external tokenExist(_ticker) tokenIsNotDai(_ticker) {\n    //     if (_side == Side.SELL) {\n    //         require(\n    //             traderBalances[msg.sender][_ticker] >= _amount,\n    //             \"Dex: Insufficent Balance\"\n    //         );\n    //     }\n    //     //taking the pointer of other side of order: if the marketOrder is of BUY it will point to SELL\n    //     Order[] storage orders = orderBook[_ticker][uint256(\n    //         _side == Side.BUY ? Side.SELL : Side.BUY\n    //     )];\n    //     uint256 i; //initial value of i will be 0\n    //     uint256 remaining = _amount;\n    //     while (i < orders.length && remaining > 0) {\n    //         uint256 available = orders[i].amount.sub(orders[i].filled);\n    //         uint256 matched = (remaining > available) ? available : remaining;\n    //         remaining = remaining.sub(matched);\n    //         orders[i].filled = orders[i].filled.add(matched);\n    //         emit NewTrade(\n    //             nextTradeId,\n    //             orders[i].id,\n    //             matched,\n    //             orders[i].price,\n    //             now,\n    //             orders[i].trader,\n    //             msg.sender,\n    //             _ticker\n    //         );\n\n    //         if (_side == Side.SELL) {\n    //             traderBalances[msg.sender][_ticker] = traderBalances[msg\n    //                 .sender][_ticker]\n    //                 .sub(matched);\n    //             traderBalances[msg.sender][DAI] = traderBalances[msg\n    //                 .sender][DAI]\n    //                 .add(matched.mul(orders[i].price));\n    //             traderBalances[orders[i]\n    //                 .trader][_ticker] = traderBalances[orders[i]\n    //                 .trader][_ticker]\n    //                 .add(matched);\n    //             traderBalances[orders[i].trader][DAI] = traderBalances[orders[i]\n    //                 .trader][DAI]\n    //                 .sub(matched.mul(orders[i].price));\n    //         }\n    //         if (_side == Side.BUY) {\n    //             require(\n    //                 traderBalances[msg.sender][DAI] >=\n    //                     matched.mul(orders[i].price),\n    //                 \"Dex: Insufficient DAI Balance\"\n    //             );\n\n    //             traderBalances[msg.sender][_ticker] = traderBalances[msg\n    //                 .sender][_ticker]\n    //                 .add(matched);\n    //             traderBalances[msg.sender][DAI] = traderBalances[msg\n    //                 .sender][DAI]\n    //                 .sub(matched.mul(orders[i].price));\n    //             traderBalances[orders[i]\n    //                 .trader][_ticker] = traderBalances[orders[i]\n    //                 .trader][_ticker]\n    //                 .sub(matched);\n    //             traderBalances[orders[i].trader][DAI] = traderBalances[orders[i]\n    //                 .trader][DAI]\n    //                 .add(matched.mul(orders[i].price));\n    //         }\n    //         nextTradeId = nextTradeId.add(1);\n    //         i = i.add(1);\n    //     }\n    //     i = 0;\n    //     while (i < orders.length && orders[i].filled == orders[i].amount) {\n    //         for (uint256 j = i; j < orders.length - 1; j++) {\n    //             orders[j] = orders[j + 1];\n    //         }\n    //         orders.pop();\n    //         i = i.add(1);\n    //     }\n    // }\n\n    /**-----END: MARKET orders------**/\n    /**\n     * @dev Modifiers\n     */\n    //declaring all modifiers\n    modifier onlyAdmin() {\n        require(msg.sender == admin, \"Dex: This is not authorised address\");\n        _;\n    }\n    modifier tokenExist(bytes32 _ticker) {\n        require(\n            tokens[_ticker].tokenAddress != address(0),\n            \"Dex: Token Address doesn't exist\"\n        );\n        _;\n    }\n    modifier tokenIsNotDai(bytes32 _ticker) {\n        require(_ticker != DAI, \"Dex: Cannot trade DAI token\");\n        _;\n    }\n}\n",
  "sourcePath": "/Users/bhasineeraj/bhasineeraj/offChainOrderBook/contracts/Dex.sol",
  "compiler": {
    "name": "solc",
    "version": "0.6.3+commit.8dda9521.Emscripten.clang"
  },
  "schemaVersion": "3.2.0",
  "updatedAt": "2020-08-15T05:00:37.880Z",
  "networkType": "ethereum",
  "devdoc": {
    "author": "Bhasin Neeraj",
    "methods": {},
    "title": "Dex for ERC20 tokens"
  },
  "userdoc": {
    "methods": {
      "createMarketOrder(address,uint256,bytes32,uint256,uint256,uint256)": {
        "notice": "-----START: Market orders settlement------*"
      },
      "deposit(uint256,bytes32)": {
        "notice": "-----START: Wallet------*"
      }
    }
  }
}